{
  "contractName": "CrowdFunding",
  "abi": [
    {
      "stateMutability": "payable",
      "type": "fallback",
      "payable": true
    },
    {
      "inputs": [
        {
          "internalType": "uint256",
          "name": "",
          "type": "uint256"
        }
      ],
      "name": "fundings",
      "outputs": [
        {
          "internalType": "address payable",
          "name": "initiator",
          "type": "address"
        },
        {
          "internalType": "string",
          "name": "title",
          "type": "string"
        },
        {
          "internalType": "string",
          "name": "info",
          "type": "string"
        },
        {
          "internalType": "uint256",
          "name": "goal",
          "type": "uint256"
        },
        {
          "internalType": "uint256",
          "name": "endTime",
          "type": "uint256"
        },
        {
          "internalType": "bool",
          "name": "success",
          "type": "bool"
        },
        {
          "internalType": "uint256",
          "name": "amount",
          "type": "uint256"
        },
        {
          "internalType": "uint256",
          "name": "initiatorAmount",
          "type": "uint256"
        },
        {
          "internalType": "uint256",
          "name": "numFunders",
          "type": "uint256"
        },
        {
          "internalType": "uint256",
          "name": "numUses",
          "type": "uint256"
        },
        {
          "internalType": "uint256",
          "name": "count",
          "type": "uint256"
        },
        {
          "internalType": "uint256",
          "name": "agreeCount",
          "type": "uint256"
        },
        {
          "internalType": "uint256",
          "name": "disagreeCount",
          "type": "uint256"
        }
      ],
      "stateMutability": "view",
      "type": "function",
      "constant": true
    },
    {
      "inputs": [],
      "name": "numFundings",
      "outputs": [
        {
          "internalType": "uint256",
          "name": "",
          "type": "uint256"
        }
      ],
      "stateMutability": "view",
      "type": "function",
      "constant": true
    },
    {
      "inputs": [
        {
          "internalType": "address",
          "name": "",
          "type": "address"
        },
        {
          "internalType": "uint256",
          "name": "",
          "type": "uint256"
        }
      ],
      "name": "rewards",
      "outputs": [
        {
          "internalType": "uint256",
          "name": "FundingID",
          "type": "uint256"
        },
        {
          "internalType": "address payable",
          "name": "initiator",
          "type": "address"
        },
        {
          "internalType": "string",
          "name": "title",
          "type": "string"
        },
        {
          "internalType": "string",
          "name": "info",
          "type": "string"
        },
        {
          "internalType": "uint256",
          "name": "amount",
          "type": "uint256"
        },
        {
          "internalType": "uint256",
          "name": "myReward",
          "type": "uint256"
        },
        {
          "internalType": "uint256",
          "name": "agreeCount",
          "type": "uint256"
        },
        {
          "internalType": "uint256",
          "name": "disagreeCount",
          "type": "uint256"
        }
      ],
      "stateMutability": "view",
      "type": "function",
      "constant": true
    },
    {
      "stateMutability": "payable",
      "type": "receive",
      "payable": true
    },
    {
      "inputs": [],
      "name": "getRewardsLength",
      "outputs": [
        {
          "internalType": "uint256",
          "name": "",
          "type": "uint256"
        }
      ],
      "stateMutability": "view",
      "type": "function",
      "constant": true
    },
    {
      "inputs": [
        {
          "internalType": "string",
          "name": "title",
          "type": "string"
        },
        {
          "internalType": "string",
          "name": "info",
          "type": "string"
        },
        {
          "internalType": "uint256",
          "name": "goal",
          "type": "uint256"
        },
        {
          "internalType": "uint256",
          "name": "endTime",
          "type": "uint256"
        }
      ],
      "name": "newFunding",
      "outputs": [
        {
          "internalType": "uint256",
          "name": "",
          "type": "uint256"
        }
      ],
      "stateMutability": "payable",
      "type": "function",
      "payable": true
    },
    {
      "inputs": [
        {
          "internalType": "uint256",
          "name": "ID",
          "type": "uint256"
        },
        {
          "internalType": "bool",
          "name": "flag",
          "type": "bool"
        }
      ],
      "name": "contribute",
      "outputs": [],
      "stateMutability": "payable",
      "type": "function",
      "payable": true
    },
    {
      "inputs": [
        {
          "internalType": "uint256",
          "name": "ID",
          "type": "uint256"
        }
      ],
      "name": "returnMoneyE",
      "outputs": [],
      "stateMutability": "nonpayable",
      "type": "function"
    },
    {
      "inputs": [
        {
          "internalType": "uint256",
          "name": "ID",
          "type": "uint256"
        }
      ],
      "name": "returnMoney",
      "outputs": [],
      "stateMutability": "nonpayable",
      "type": "function"
    },
    {
      "inputs": [
        {
          "internalType": "uint256",
          "name": "ID",
          "type": "uint256"
        }
      ],
      "name": "withdrawReward",
      "outputs": [],
      "stateMutability": "nonpayable",
      "type": "function"
    },
    {
      "inputs": [
        {
          "internalType": "uint256",
          "name": "ID",
          "type": "uint256"
        },
        {
          "internalType": "string",
          "name": "info",
          "type": "string"
        }
      ],
      "name": "newUse",
      "outputs": [],
      "stateMutability": "nonpayable",
      "type": "function"
    },
    {
      "inputs": [
        {
          "internalType": "uint256",
          "name": "ID",
          "type": "uint256"
        },
        {
          "internalType": "uint256",
          "name": "useID",
          "type": "uint256"
        },
        {
          "internalType": "bool",
          "name": "agree",
          "type": "bool"
        }
      ],
      "name": "agreeUse",
      "outputs": [],
      "stateMutability": "nonpayable",
      "type": "function"
    },
    {
      "inputs": [
        {
          "internalType": "uint256",
          "name": "ID",
          "type": "uint256"
        },
        {
          "internalType": "uint256",
          "name": "useID",
          "type": "uint256"
        }
      ],
      "name": "checkUse",
      "outputs": [],
      "stateMutability": "nonpayable",
      "type": "function"
    },
    {
      "inputs": [
        {
          "internalType": "uint256",
          "name": "ID",
          "type": "uint256"
        }
      ],
      "name": "getUseLength",
      "outputs": [
        {
          "internalType": "uint256",
          "name": "",
          "type": "uint256"
        }
      ],
      "stateMutability": "view",
      "type": "function",
      "constant": true
    },
    {
      "inputs": [
        {
          "internalType": "uint256",
          "name": "ID",
          "type": "uint256"
        },
        {
          "internalType": "uint256",
          "name": "useID",
          "type": "uint256"
        },
        {
          "internalType": "address",
          "name": "addr",
          "type": "address"
        }
      ],
      "name": "getUse",
      "outputs": [
        {
          "internalType": "string",
          "name": "",
          "type": "string"
        },
        {
          "internalType": "uint256",
          "name": "",
          "type": "uint256"
        },
        {
          "internalType": "uint256",
          "name": "",
          "type": "uint256"
        },
        {
          "internalType": "bool",
          "name": "",
          "type": "bool"
        },
        {
          "internalType": "uint256",
          "name": "",
          "type": "uint256"
        }
      ],
      "stateMutability": "view",
      "type": "function",
      "constant": true
    },
    {
      "inputs": [],
      "name": "getBalance",
      "outputs": [
        {
          "internalType": "uint256",
          "name": "",
          "type": "uint256"
        }
      ],
      "stateMutability": "view",
      "type": "function",
      "constant": true
    },
    {
      "inputs": [],
      "name": "withdrawBalance",
      "outputs": [],
      "stateMutability": "nonpayable",
      "type": "function"
    },
    {
      "inputs": [
        {
          "internalType": "address",
          "name": "addr",
          "type": "address"
        },
        {
          "internalType": "uint256",
          "name": "ID",
          "type": "uint256"
        }
      ],
      "name": "getMyFundings",
      "outputs": [
        {
          "internalType": "uint256",
          "name": "",
          "type": "uint256"
        }
      ],
      "stateMutability": "view",
      "type": "function",
      "constant": true
    },
    {
      "inputs": [
        {
          "internalType": "address",
          "name": "addr",
          "type": "address"
        },
        {
          "internalType": "uint256",
          "name": "ID",
          "type": "uint256"
        }
      ],
      "name": "getMyFundingsFlag",
      "outputs": [
        {
          "internalType": "bool",
          "name": "",
          "type": "bool"
        }
      ],
      "stateMutability": "view",
      "type": "function",
      "constant": true
    },
    {
      "inputs": [],
      "name": "rechargeBalance",
      "outputs": [
        {
          "internalType": "uint256",
          "name": "",
          "type": "uint256"
        }
      ],
      "stateMutability": "payable",
      "type": "function",
      "payable": true
    }
  ],
  "bytecode": "0x6080604052600380546001600160a01b0319167333827106e00cd84f614fa91596429b1268e22a4617905534801561003657600080fd5b50612482806100466000396000f3fe6080604052600436106101185760003560e01c8063716f7147116100a0578063d13cb1fb11610064578063d13cb1fb14610564578063d7da1dee146106c7578063d820b523146106dc578063ee40f60d14610729578063fefccc6c146107fe5761011f565b8063716f71471461026a5780638a23e047146102a3578063a7783233146102d3578063b933ceac14610405578063c70a2d791461054f5761011f565b80633785fc1a116100e75780633785fc1a1461019f5780633c698349146101c9578063523a3f08146101f357806357531ea21461021d5780635fd8c710146102555761011f565b80630bbe1ef81461012157806312065fe01461013b57806329912b5414610150578063305d996c146101755761011f565b3661011f57005b005b6101296108b8565b60408051918252519081900360200190f35b34801561014757600080fd5b506101296108bc565b61011f6004803603604081101561016657600080fd5b508035906020013515156108c0565b34801561018157600080fd5b5061011f6004803603602081101561019857600080fd5b5035610b34565b3480156101ab57600080fd5b5061011f600480360360208110156101c257600080fd5b5035610c7d565b3480156101d557600080fd5b50610129600480360360208110156101ec57600080fd5b5035610d5d565b3480156101ff57600080fd5b5061011f6004803603602081101561021657600080fd5b5035610d90565b34801561022957600080fd5b5061011f6004803603606081101561024057600080fd5b50803590602081013590604001351515611753565b34801561026157600080fd5b5061011f611896565b34801561027657600080fd5b506101296004803603604081101561028d57600080fd5b506001600160a01b0381351690602001356118dc565b3480156102af57600080fd5b5061011f600480360360408110156102c657600080fd5b508035906020013561195f565b610129600480360360808110156102e957600080fd5b81019060208101813564010000000081111561030457600080fd5b82018360208201111561031657600080fd5b8035906020019184600183028401116401000000008311171561033857600080fd5b91908080601f016020809104026020016040519081016040528093929190818152602001838380828437600092019190915250929594936020810193503591505064010000000081111561038b57600080fd5b82018360208201111561039d57600080fd5b803590602001918460018302840111640100000000831117156103bf57600080fd5b91908080601f0160208091040260200160405190810160405280939291908181526020018383808284376000920191909152509295505082359350505060200135611cba565b34801561041157600080fd5b5061043e6004803603604081101561042857600080fd5b506001600160a01b038135169060200135611d6f565b60405180898152602001886001600160a01b031681526020018060200180602001878152602001868152602001858152602001848152602001838103835289818151815260200191508051906020019080838360005b838110156104ac578181015183820152602001610494565b50505050905090810190601f1680156104d95780820380516001836020036101000a031916815260200191505b5083810382528851815288516020918201918a019080838360005b8381101561050c5781810151838201526020016104f4565b50505050905090810190601f1680156105395780820380516001836020036101000a031916815260200191505b509a505050505050505050505060405180910390f35b34801561055b57600080fd5b50610129611eeb565b34801561057057600080fd5b5061058e6004803603602081101561058757600080fd5b5035611ef1565b604051808e6001600160a01b0316815260200180602001806020018d81526020018c81526020018b151581526020018a815260200189815260200188815260200187815260200186815260200185815260200184815260200183810383528f818151815260200191508051906020019080838360005b8381101561061c578181015183820152602001610604565b50505050905090810190601f1680156106495780820380516001836020036101000a031916815260200191505b5083810382528e818151815260200191508051906020019080838360005b8381101561067f578181015183820152602001610667565b50505050905090810190601f1680156106ac5780820380516001836020036101000a031916815260200191505b509f5050505050505050505050505050505060405180910390f35b3480156106d357600080fd5b5061012961207b565b3480156106e857600080fd5b50610715600480360360408110156106ff57600080fd5b506001600160a01b03813516906020013561208e565b604080519115158252519081900360200190f35b34801561073557600080fd5b506107686004803603606081101561074c57600080fd5b50803590602081013590604001356001600160a01b031661210a565b60405180806020018681526020018581526020018415158152602001838152602001828103825287818151815260200191508051906020019080838360005b838110156107bf5781810151838201526020016107a7565b50505050905090810190601f1680156107ec5780820380516001836020036101000a031916815260200191505b50965050505050505060405180910390f35b34801561080a57600080fd5b5061011f6004803603604081101561082157600080fd5b8135919081019060408101602082013564010000000081111561084357600080fd5b82018360208201111561085557600080fd5b8035906020019184600183028401116401000000008311171561087757600080fd5b91908080601f01602080910402602001604051908101604052809392919081815260200183838082843760009201919091525092955061228c945050505050565b3490565b4790565b6000341180156108d85750674563918244f400003411155b61091e576040805162461bcd60e51b8152602060048201526012602482015271e68abce98791e4b88de59088e6b395efbc8160701b604482015290519081900360640190fd5b600082815260016020526040902060040154421061097b576040805162461bcd60e51b8152602060048201526015602482015274e697b6e997b4e5b7b2e7bb8fe688aae6ada2efbc8160581b604482015290519081900360640190fd5b60008281526001602052604090206005015460ff16156109d7576040805162461bcd60e51b8152602060048201526012602482015271e68a95e7a5a8e5b7b2e5ae8ce68890efbc8160701b604482015290519081900360640190fd5b60015b6000838152600160205260409020600801548111610a7857600083815260016020908152604080832060088101548452600d019091529020546001600160a01b0316331415610a70576040805162461bcd60e51b815260206004820152601860248201527fe682a8e5b7b2e58f82e4b88ee8bf87e68a95e7a5a8efbc810000000000000000604482015290519081900360640190fd5b6001016109da565b50600082815260016020819052604090912060068101805434019055600a810180549092019091558115610ab257600b8101805460010190555b81610ac357600c8101805460010190555b60088101805460019081018083556000908152600d8401602052604080822080546001600160a01b031916331790558354825280822034930192909255915482529020600201805492151560ff199384161790556003810154600a8201546005909201805490931691101517905550565b6000548111158015610b47575060018110155b610b5057600080fd5b60008181526001602081905260409091206005015460ff16151514610b7457600080fd5b600081815260016020526040902060060154610b8f57600080fd5b6000818152600160205260409020600b810154600c9091015414610bb257600080fd5b6000818152600160205260408082206007810180549084905560068201849055815492519193909290916001600160a01b039091169083156108fc0290849084818181858888f19350505050158015610c0f573d6000803e3d6000fd5b5060015b83600801548111610c76576000818152600d850160205260408082206001810154905491519094506001600160a01b039091169184156108fc02918591818181858888f19350505050158015610c6d573d6000803e3d6000fd5b50600101610c13565b5050505050565b6000548111158015610c90575060018110155b610c9957600080fd5b6000818152600160205260408082206007810180546006830185905590849055815492519193909290916001600160a01b039091169083156108fc0290849084818181858888f19350505050158015610cf6573d6000803e3d6000fd5b5060015b83600801548111610c76576000818152600d850160205260408082206001810154905491519094506001600160a01b039091169184156108fc02918591818181858888f19350505050158015610d54573d6000803e3d6000fd5b50600101610cfa565b600080548211158015610d71575060018210155b610d7a57600080fd5b5060009081526001602052604090206009015490565b6000548111158015610da3575060018110155b610dac57600080fd5b600081815260016020526040902060060154610dc757600080fd5b6000818152600160205260408120600781018054908390556006820183905560059091015490919060ff168015610e1457506000838152600160205260409020600b810154600c90910154105b156113ee576000838152600160205260408082205490516001600160a01b03909116916005850280156108fc02929091818181858888f19350505050158015610e61573d6000803e3d6000fd5b50610e6a61236b565b60408051610100808201835286825260008781526001602081815285832080546001600160a01b031682870152928a905281815291810180548651600293821615909502600019011691909104601f8101839004830284018301865280845293948501939091830182828015610f215780601f10610ef657610100808354040283529160200191610f21565b820191906000526020600020905b815481529060010190602001808311610f0457829003601f168201915b50505050508152602001600160008781526020019081526020016000206002018054600181600116156101000203166002900480601f016020809104026020016040519081016040528092919081815260200182805460018160011615610100020316600290048015610fd55780601f10610faa57610100808354040283529160200191610fd5565b820191906000526020600020905b815481529060010190602001808311610fb857829003601f168201915b505050918352505060208082018690526005860260408084019190915260008881526001808452828220600b8101546060870152600c81015460809096019590955293546001600160a01b0390811682526002808552838320805480880182559084529285902087516008909402019283558685015195830180546001600160a01b031916969092169590951790559084015180519495508594919361108193908501929101906123b9565b506060820151805161109d9160038401916020909101906123b9565b506080820151600482015560a0820151600582015560c0820151600682015560e09091015160079091015560015b60008581526001602052604090206008015481116113eb576000858152600160208181526040808420858552600d019091529091209081015460029091015490935060ff16156113df576000858152600160209081526040808320848452600d019091528082205490516001600160a01b03909116916002860280156108fc02929091818181858888f1935050505015801561116b573d6000803e3d6000fd5b5061117461236b565b60408051610100808201835288825260008981526001602081815285832080546001600160a01b031682870152928c905281815291810180548651600293821615909502600019011691909104601f810183900483028401830186528084529394850193909183018282801561122b5780601f106112005761010080835404028352916020019161122b565b820191906000526020600020905b81548152906001019060200180831161120e57829003601f168201915b50505050508152602001600160008981526020019081526020016000206002018054600181600116156101000203166002900480601f0160208091040260200160405190810160405280929190818152602001828054600181600116156101000203166002900480156112df5780601f106112b4576101008083540402835291602001916112df565b820191906000526020600020905b8154815290600101906020018083116112c257829003601f168201915b50505091835250506020808201879052600280880260408085019190915260008b81526001808552828220600b8101546060880152600c810154608090970196909652888252600d9095018452818120546001600160a01b039081168252838552828220805480880182559083529185902087516008909302019182558685015195820180546001600160a01b031916969091169590951790945584015180519495508594611396939285019291909101906123b9565b50606082015180516113b29160038401916020909101906123b9565b506080820151816004015560a0820151816005015560c0820151816006015560e082015181600701555050505b600092506001016110cb565b50505b60008381526001602052604090206005015460ff16801561142557506000838152600160205260409020600b810154600c90910154115b1561174e5760015b600084815260016020526040902060080154811161174c576000848152600160208181526040808420858552600d019091529091209081015460029091015490925060ff16611740576000848152600160209081526040808320848452600d019091528082205490516001600160a01b03909116916002850280156108fc02929091818181858888f193505050501580156114cc573d6000803e3d6000fd5b506114d561236b565b60408051610100808201835287825260008881526001602081815285832080546001600160a01b031682870152928b905281815291810180548651600293821615909502600019011691909104601f810183900483028401830186528084529394850193909183018282801561158c5780601f106115615761010080835404028352916020019161158c565b820191906000526020600020905b81548152906001019060200180831161156f57829003601f168201915b50505050508152602001600160008881526020019081526020016000206002018054600181600116156101000203166002900480601f0160208091040260200160405190810160405280929190818152602001828054600181600116156101000203166002900480156116405780601f1061161557610100808354040283529160200191611640565b820191906000526020600020905b81548152906001019060200180831161162357829003601f168201915b50505091835250506020808201869052600280870260408085019190915260008a81526001808552828220600b8101546060880152600c810154608090970196909652888252600d9095018452818120546001600160a01b039081168252838552828220805480880182559083529185902087516008909302019182558685015195820180546001600160a01b0319169690911695909517909455840151805194955085946116f7939285019291909101906123b9565b50606082015180516117139160038401916020909101906123b9565b506080820151816004015560a0820151816005015560c0820151816006015560e082015181600701555050505b6000915060010161142d565b505b505050565b6000548311158015611766575060018310155b61176f57600080fd5b6000838152600160205260409020600901548211801590611791575060018210155b61179a57600080fd5b6000838152600160209081526040808320858452600e0190915290206003015460ff16156117c757600080fd5b60015b600084815260016020526040902060080154811161188b576000848152600160209081526040808320848452600d019091529020546001600160a01b031633141561188357811561184c576000848152600160208181526040808420878552600e01825280842080840180548501905585855260040190915290912055611883565b6000848152600160208181526040808420878552600e01825280842060028082018054909501909455858552600401909152909120555b6001016117ca565b5061174e838361195f565b6003546001600160a01b031633146118ad57600080fd5b60405133904780156108fc02916000818181858888f193505050501580156118d9573d6000803e3d6000fd5b50565b60008060015b6000848152600160205260409020600801548111611957576000848152600160209081526040808320848452600d019091529020546001600160a01b038681169116141561194f576000848152600160208181526040808420858552600d01909152909120015491909101905b6001016118e2565b509392505050565b6000548211158015611972575060018210155b61197b57600080fd5b6000828152600160209081526040808320848452600e0190915290206003015460ff16156119a857600080fd5b60008281526001602081815260408084206007810154600a820154878752600e909201909352908420909201549092916002900411611b6e576000848152600160208181526040808420878552600e81018352818520600301805460ff1916851790558885529290915260078201839055905490516001600160a01b03909116916005850280156108fc02929091818181858888f19350505050158015611a53573d6000803e3d6000fd5b5060015b6000858152600160205260409020600801548111611b6c576000858152600160209081526040808320848452600d019091529020546001600160a01b0316331415611b64576000858152600160208181526040808420858552600d8101909252909220908101546006909201805483900390556002015490925060ff1615611b31576000858152600160209081526040808320848452600d019091528082205490516001600160a01b03909116916002850280156108fc02929091818181858888f19350505050158015611b2f573d6000803e3d6000fd5b505b6000858152600160208181526040808420858552600d810183529084208301549389905291905260060180549190910390555b600101611a57565b505b6000848152600160209081526040808320600a810154878552600e9091019092529091206002908101549104101561174c576000848152600160208181526040808420878552600e81018352908420600301805460ff19168417905587845290829052600701919091555b6000858152600160205260409020600801548111610c76576000858152600160209081526040808320848452600d019091529020546001600160a01b0316331415611cb2576000858152600160208181526040808420858552600d8101909252909220908101546006909201805483900390556002015490925060ff16611cb2576000858152600160209081526040808320848452600d019091528082205490516001600160a01b03909116916002850280156108fc02929091818181858888f19350505050158015611cb0573d6000803e3d6000fd5b505b600101611bd9565b6000428211611cc857600080fd5b60008054600190810180835582526020818152604090922080546001600160a01b0319163317815534600782015587519092611d0a92840191908901906123b9565b508451611d2090600283019060208801906123b9565b50600381019390935550600482015560058101805460ff191690556000600682018190556008820181905560098201819055600a8201819055600b8201819055600c9091018190555492915050565b60026020528160005260406000208181548110611d8857fe5b600091825260209182902060089091020180546001808301546002808501805460408051601f600019978416156101000297909701909216939093049485018890048802810188019092528382529397506001600160a01b0390911695509293830182828015611e395780601f10611e0e57610100808354040283529160200191611e39565b820191906000526020600020905b815481529060010190602001808311611e1c57829003601f168201915b5050505060038301805460408051602060026001851615610100026000190190941693909304601f8101849004840282018401909252818152949594935090830182828015611ec95780601f10611e9e57610100808354040283529160200191611ec9565b820191906000526020600020905b815481529060010190602001808311611eac57829003601f168201915b5050505050908060040154908060050154908060060154908060070154905088565b60005481565b600160208181526000928352604092839020805481840180548651600261010097831615979097026000190190911695909504601f81018590048502860185019096528585526001600160a01b0390911694919392909190830182828015611f9a5780601f10611f6f57610100808354040283529160200191611f9a565b820191906000526020600020905b815481529060010190602001808311611f7d57829003601f168201915b50505060028085018054604080516020601f600019610100600187161502019094169590950492830185900485028101850190915281815295969594509092509083018282801561202c5780601f106120015761010080835404028352916020019161202c565b820191906000526020600020905b81548152906001019060200180831161200f57829003601f168201915b50505060038401546004850154600586015460068701546007880154600889015460098a0154600a8b0154600b8c0154600c909c01549a9b979a96995060ff909516975092959194909391908d565b3360009081526002602052604090205490565b60008060015b6000848152600160205260409020600801548111611957576000848152600160209081526040808320848452600d019091529020546001600160a01b0386811691161415612102576000848152600160209081526040808320848452600d0190915290206002015460ff1691505b600101612094565b60606000806000806000548811158015612125575060018810155b61212e57600080fd5b60008881526001602081815260408084208b8552600e01909152822091905b60008b81526001602052604090206008015481116121cc5760008b8152600160209081526040808320848452600d019091529020546001600160a01b038a8116911614156121c45760008b81526001602090815260408083208d8452600e01825280832084845260040190915290205491506121cc565b60010161214d565b506001828101546002808501546003860154865460408051602061010098841615989098026000190190921694909404601f81018790048702820187019094528381528795929360ff909216928792879183018282801561226e5780601f106122435761010080835404028352916020019161226e565b820191906000526020600020905b81548152906001019060200180831161225157829003601f168201915b50505050509450965096509650965096505050939792965093509350565b600054821115801561229f575060018210155b6122a857600080fd5b60008281526001602081905260409091206005015460ff161515146122cc57600080fd5b6000828152600160205260409020546001600160a01b031633146122ef57600080fd5b600082815260016020818152604080842060098101805490940193849055928452600e830182529092208351919261232a92908501906123b9565b506009810180546000908152600e909201602052604080832060010183905581548352808320600201839055905482529020600301805460ff191690555050565b6040518061010001604052806000815260200160006001600160a01b031681526020016060815260200160608152602001600081526020016000815260200160008152602001600081525090565b828054600181600116156101000203166002900490600052602060002090601f016020900481019282601f106123fa57805160ff1916838001178555612427565b82800160010185558215612427579182015b8281111561242757825182559160200191906001019061240c565b50612433929150612437565b5090565b5b80821115612433576000815560010161243856fea2646970667358221220a4e2e9241963cd00bb9bbc9b4869945805e144b5e4ace01c1b82bb841881228364736f6c634300060c0033",
  "immutableReferences": {},
  "source": "// SPDX-License-Identifier: MIT\npragma solidity >=0.4.22 <0.9.0;\n\ncontract CrowdFunding {\n\n  // \n  struct Funder {\n    address payable addr;   // \n    uint amount;            // \n    bool flag;              // \n  }\n\n  // \n  struct Use {\n    string info;                     // \n    uint agreeCount;                 // \n    uint disagreeCount;              // \n    bool over;                       // \n    mapping(uint => uint) agree;     //  0: 12\n  }\n\n  // \n  struct Funding {\n    address payable initiator;       // \n    string title;                    // \n    string info;                     // \n    uint goal;                       // \n    uint endTime;                    // \n\n    bool success;                    // \n\n    uint256 amount;                     // \n    uint256 initiatorAmount;            // \n\n    uint numFunders;                 // \n    uint numUses;                    // \n    uint count;                      // \n    uint agreeCount;                 // \n    uint disagreeCount;              // \n    mapping(uint => Funder) funders; // \n    mapping(uint => Use) uses;       // \n  }\n\n  struct Rewards {\n    uint FundingID;                  // ID\n    address payable initiator;       // \n    string title;                    // \n    string info;                     // \n    uint256 amount;                     // \n    uint256 myReward;                   // \n    uint agreeCount;                 // \n    uint disagreeCount;              // \n  }\n\n  uint public numFundings;                  // \n  mapping(uint => Funding) public fundings; // \n  mapping(address => Rewards []) public rewards; // \n  address admin = 0x33827106E00Cd84f614fa91596429b1268e22a46;\n\n  function getRewardsLength() public view returns(uint) {\n    return rewards[msg.sender].length;\n  }\n  /**\n   * \n   * @param title \n   * @param info \n   * @param goal \n   * @param endTime \n   */\n  function newFunding(string memory title, string memory info, uint goal, uint endTime) public payable returns(uint) {\n    require(endTime > block.timestamp);\n\n    numFundings = numFundings + 1;\n    Funding storage f = fundings[numFundings];\n    f.initiator = msg.sender;\n    f.initiatorAmount = msg.value;\n    f.title = title;\n    f.info = info;\n    f.goal = goal;\n    f.endTime = endTime;\n    f.success = false;\n    f.amount = 0;\n    f.numFunders = 0;\n    f.numUses = 0;\n    f.count = 0;\n    f.agreeCount = 0;\n    f.disagreeCount = 0;\n\n    return numFundings;\n  }\n\n  function contribute(uint ID,bool flag) public payable {\n    // 05\n    require(msg.value > 0 ether && msg.value <= 5 ether, \"\");\n    // \n    require(fundings[ID].endTime > block.timestamp , \"\");\n    // \n    require(fundings[ID].success == false , \"\");\n    // \n    for(uint i = 1; i <= fundings[ID].numFunders; i++){\n      require(fundings[ID].funders[fundings[ID].numFunders].addr != msg.sender, \"\");\n    }\n\n\n    Funding storage f = fundings[ID];\n    f.amount += msg.value;\n    f.count += 1;\n    if (flag) {\n      f.agreeCount += 1;\n    }\n    if (!flag) {\n      f.disagreeCount += 1;\n    }\n    f.numFunders = f.numFunders + 1;\n    f.funders[f.numFunders].addr = msg.sender;\n    f.funders[f.numFunders].amount = msg.value;\n    f.funders[f.numFunders].flag = flag;\n    // \n    f.success = f.count >= f.goal;\n  }\n\n  // \n  function returnMoneyE(uint ID) public {\n    require(ID <= numFundings && ID >= 1);\n    require(fundings[ID].success == true);\n    require(fundings[ID].amount > 0);\n    require(fundings[ID].disagreeCount == fundings[ID].agreeCount);\n    Funding storage f = fundings[ID];\n\n    uint256 initiatorAmount = f.initiatorAmount;\n    uint256 amount;\n    f.initiatorAmount = 0;\n    f.amount = 0;\n    // \n    f.initiator.transfer(initiatorAmount);\n    for(uint i=1; i<=f.numFunders; i++) {\n      amount = f.funders[i].amount;\n      f.funders[i].addr.transfer(amount);\n    }\n\n  }\n  // \n  function returnMoney(uint ID) public {\n    require(ID <= numFundings && ID >= 1);\n    Funding storage f = fundings[ID];\n    uint256 initiatorAmount = f.initiatorAmount;\n    uint256 amount;\n    f.amount = 0;\n    f.initiatorAmount = 0;\n    // \n    f.initiator.transfer(initiatorAmount);\n    for(uint i=1; i<=f.numFunders; i++) {\n      amount = f.funders[i].amount;\n      f.funders[i].addr.transfer(amount);\n    }\n  }\n\n  //\n  function withdrawReward(uint ID) public {\n    require(ID <= numFundings && ID >= 1);\n    require(fundings[ID].amount > 0);\n    uint256 initiatorAmount = fundings[ID].initiatorAmount;\n    uint256 amount;\n    fundings[ID].initiatorAmount = 0;\n    fundings[ID].amount = 0;\n    if (fundings[ID].success && fundings[ID].disagreeCount < fundings[ID].agreeCount) {\n      //  5 \n      fundings[ID].initiator.transfer(initiatorAmount*5);\n      Rewards memory reward1 = Rewards(ID,fundings[ID].initiator,fundings[ID].title, fundings[ID].info, initiatorAmount, initiatorAmount*5, fundings[ID].agreeCount, fundings[ID].disagreeCount);\n      rewards[fundings[ID].initiator].push(reward1);\n      for(uint i=1; i<=fundings[ID].numFunders; i++) {\n        amount = fundings[ID].funders[i].amount;\n        // 2\n        if (fundings[ID].funders[i].flag){\n          fundings[ID].funders[i].addr.transfer(amount*2);\n          Rewards memory reward2 = Rewards(ID,fundings[ID].initiator,fundings[ID].title, fundings[ID].info, amount, amount*2, fundings[ID].agreeCount, fundings[ID].disagreeCount);\n          rewards[fundings[ID].funders[i].addr].push(reward2);\n        }\n        amount = 0;\n      }\n    }\n    if (fundings[ID].success && fundings[ID].disagreeCount > fundings[ID].agreeCount) {\n      for(uint i=1; i<=fundings[ID].numFunders; i++) {\n        amount = fundings[ID].funders[i].amount;\n        // 2\n        if (!fundings[ID].funders[i].flag){\n          fundings[ID].funders[i].addr.transfer(amount*2);\n          Rewards memory reward3 = Rewards(ID,fundings[ID].initiator,fundings[ID].title, fundings[ID].info, amount, amount*2, fundings[ID].agreeCount, fundings[ID].disagreeCount);\n          rewards[fundings[ID].funders[i].addr].push(reward3);\n        }\n        amount = 0;\n      }\n    }\n\n  }\n\n  function newUse(uint ID, string memory info) public {\n    require(ID <= numFundings && ID >= 1);\n    require(fundings[ID].success == true);\n    require(msg.sender == fundings[ID].initiator);\n\n    Funding storage f = fundings[ID];\n    f.numUses = f.numUses + 1;\n    f.uses[f.numUses].info = info;\n    f.uses[f.numUses].agreeCount = 0;\n    f.uses[f.numUses].disagreeCount = 0;\n    f.uses[f.numUses].over = false;\n  }\n\n  function agreeUse(uint ID, uint useID, bool agree) public {\n    require(ID <= numFundings && ID >= 1);\n    require(useID <= fundings[ID].numUses && useID >= 1);\n    require(fundings[ID].uses[useID].over == false);\n\n    for(uint i=1; i<=fundings[ID].numFunders; i++)\n      if(fundings[ID].funders[i].addr == msg.sender) {\n        if(agree) {\n          fundings[ID].uses[useID].agreeCount += 1;\n          fundings[ID].uses[useID].agree[i] = 1;\n        }\n        else {\n          fundings[ID].uses[useID].disagreeCount += 1;\n          fundings[ID].uses[useID].agree[i] = 2;\n        }\n      }\n    checkUse(ID, useID);\n  }\n\n  function checkUse(uint ID, uint useID) public {\n    require(ID <= numFundings && ID >= 1);\n    require(fundings[ID].uses[useID].over == false);\n\n    //  5 \n    uint256 initiatorAmount = fundings[ID].initiatorAmount;\n    uint256 amount;\n    if(fundings[ID].uses[useID].agreeCount >= fundings[ID].count / 2) {\n      fundings[ID].uses[useID].over = true;\n      //  5 \n      fundings[ID].initiatorAmount = 0;\n      fundings[ID].initiator.transfer(initiatorAmount*5);\n      for(uint i=1; i<=fundings[ID].numFunders; i++)\n        if(fundings[ID].funders[i].addr == msg.sender) {\n          amount = fundings[ID].funders[i].amount;\n          fundings[ID].amount -= fundings[ID].funders[i].amount;\n          // 2\n          if (fundings[ID].funders[i].flag){\n            fundings[ID].funders[i].addr.transfer(amount*2);\n          }\n\n          fundings[ID].amount -= fundings[ID].funders[i].amount;\n        }\n    }\n    if(fundings[ID].uses[useID].disagreeCount > fundings[ID].count / 2) {\n      fundings[ID].uses[useID].over = true;\n      fundings[ID].initiatorAmount = 0;\n      for(uint i=1; i<=fundings[ID].numFunders; i++)\n        if(fundings[ID].funders[i].addr == msg.sender) {\n          amount = fundings[ID].funders[i].amount;\n          fundings[ID].amount -= fundings[ID].funders[i].amount;\n          // 2\n          if (!fundings[ID].funders[i].flag){\n            fundings[ID].funders[i].addr.transfer(amount*2);\n          }\n        }\n    }\n  }\n\n  function getUseLength(uint ID) public view returns (uint) {\n    require(ID <= numFundings && ID >= 1);\n    return fundings[ID].numUses;\n  }\n\n  function getUse(uint ID, uint useID, address addr) public view returns (string memory, uint, uint, bool, uint) {\n    require(ID <= numFundings && ID >= 1);\n\n    Use storage u = fundings[ID].uses[useID];\n    uint agree = 0;\n    for(uint i=1; i<=fundings[ID].numFunders; i++)\n      if(fundings[ID].funders[i].addr == addr) {\n        agree = fundings[ID].uses[useID].agree[i];\n        break;\n      }\n    return (u.info, u.agreeCount, u.disagreeCount, u.over, agree);\n  }\n\n  function getBalance() public view returns (uint) {\n    return address(this).balance;\n  }\n\n  function withdrawBalance() public {\n    require(msg.sender == admin);\n    msg.sender.transfer(address(this).balance);\n  }\n\n  function getMyFundings(address addr, uint ID) public view returns (uint) {\n    uint res = 0;\n    for(uint i=1; i<=fundings[ID].numFunders; i++) {\n      if(fundings[ID].funders[i].addr == addr)\n        res += fundings[ID].funders[i].amount;\n    }\n    return res;\n  }\n  function getMyFundingsFlag(address addr, uint ID) public view returns (bool) {\n    bool res = false;\n    for(uint i=1; i<=fundings[ID].numFunders; i++) {\n      if(fundings[ID].funders[i].addr == addr)\n        res = fundings[ID].funders[i].flag;\n    }\n    return res;\n  }\n\n  function rechargeBalance() public payable returns(uint256) {\n    return msg.value;\n  }\n\n  fallback() external payable {}\n\n  receive() external payable {}\n}\n",
  "sourcePath": "/Users/gewenfei/workspace/ethereum/crowdfunding-dapp/contracts/CrowdFunding.sol",
  "compiler": {
    "name": "solc",
    "version": "0.6.12+commit.27d51765.Emscripten.clang"
  },
  "schemaVersion": "3.4.5",
  "updatedAt": "2022-06-05T03:09:14.855Z",
  "networkType": "ethereum",
  "devdoc": {
    "kind": "dev",
    "methods": {
      "newFunding(string,string,uint256,uint256)": {
        "params": {
          "endTime": "",
          "goal": "",
          "info": "",
          "title": ""
        }
      }
    },
    "version": 1
  },
  "userdoc": {
    "kind": "user",
    "methods": {
      "newFunding(string,string,uint256,uint256)": {
        "notice": ""
      }
    },
    "version": 1
  }
}